{"abi":[{"type":"receive","stateMutability":"payable"},{"type":"function","name":"MIN_REQUEST","inputs":[],"outputs":[{"name":"","type":"uint256","internalType":"uint256"}],"stateMutability":"view"},{"type":"function","name":"VOTING_DURATION","inputs":[],"outputs":[{"name":"","type":"uint256","internalType":"uint256"}],"stateMutability":"view"},{"type":"function","name":"createFundingProposal","inputs":[{"name":"_name","type":"string","internalType":"string"},{"name":"_category","type":"string","internalType":"string"},{"name":"_description","type":"string","internalType":"string"},{"name":"_requestedAmount","type":"uint256","internalType":"uint256"},{"name":"_jobs","type":"uint256","internalType":"uint256"}],"outputs":[],"stateMutability":"nonpayable"},{"type":"function","name":"finalizeProposal","inputs":[{"name":"_id","type":"uint256","internalType":"uint256"}],"outputs":[],"stateMutability":"nonpayable"},{"type":"function","name":"getProposal","inputs":[{"name":"_id","type":"uint256","internalType":"uint256"}],"outputs":[{"name":"","type":"tuple","internalType":"struct MaungBizCommunityFund.Proposal","components":[{"name":"id","type":"uint256","internalType":"uint256"},{"name":"proposer","type":"address","internalType":"address"},{"name":"name","type":"string","internalType":"string"},{"name":"category","type":"string","internalType":"string"},{"name":"description","type":"string","internalType":"string"},{"name":"requestedAmount","type":"uint256","internalType":"uint256"},{"name":"jobs","type":"uint256","internalType":"uint256"},{"name":"yesVotes","type":"uint256","internalType":"uint256"},{"name":"noVotes","type":"uint256","internalType":"uint256"},{"name":"deadline","type":"uint256","internalType":"uint256"},{"name":"status","type":"uint8","internalType":"enum MaungBizCommunityFund.Status"},{"name":"fundsReleased","type":"bool","internalType":"bool"}]}],"stateMutability":"view"},{"type":"function","name":"getTreasuryBalance","inputs":[],"outputs":[{"name":"","type":"uint256","internalType":"uint256"}],"stateMutability":"view"},{"type":"function","name":"hasVoted","inputs":[{"name":"","type":"uint256","internalType":"uint256"},{"name":"","type":"address","internalType":"address"}],"outputs":[{"name":"","type":"bool","internalType":"bool"}],"stateMutability":"view"},{"type":"function","name":"proposalCount","inputs":[],"outputs":[{"name":"","type":"uint256","internalType":"uint256"}],"stateMutability":"view"},{"type":"function","name":"proposals","inputs":[{"name":"","type":"uint256","internalType":"uint256"}],"outputs":[{"name":"id","type":"uint256","internalType":"uint256"},{"name":"proposer","type":"address","internalType":"address"},{"name":"name","type":"string","internalType":"string"},{"name":"category","type":"string","internalType":"string"},{"name":"description","type":"string","internalType":"string"},{"name":"requestedAmount","type":"uint256","internalType":"uint256"},{"name":"jobs","type":"uint256","internalType":"uint256"},{"name":"yesVotes","type":"uint256","internalType":"uint256"},{"name":"noVotes","type":"uint256","internalType":"uint256"},{"name":"deadline","type":"uint256","internalType":"uint256"},{"name":"status","type":"uint8","internalType":"enum MaungBizCommunityFund.Status"},{"name":"fundsReleased","type":"bool","internalType":"bool"}],"stateMutability":"view"},{"type":"function","name":"releaseFunds","inputs":[{"name":"_id","type":"uint256","internalType":"uint256"}],"outputs":[],"stateMutability":"nonpayable"},{"type":"function","name":"vote","inputs":[{"name":"_id","type":"uint256","internalType":"uint256"},{"name":"_support","type":"bool","internalType":"bool"}],"outputs":[],"stateMutability":"nonpayable"},{"type":"event","name":"FundsReleased","inputs":[{"name":"id","type":"uint256","indexed":true,"internalType":"uint256"},{"name":"amount","type":"uint256","indexed":false,"internalType":"uint256"}],"anonymous":false},{"type":"event","name":"ProposalApproved","inputs":[{"name":"id","type":"uint256","indexed":true,"internalType":"uint256"}],"anonymous":false},{"type":"event","name":"ProposalCreated","inputs":[{"name":"id","type":"uint256","indexed":true,"internalType":"uint256"},{"name":"proposer","type":"address","indexed":true,"internalType":"address"},{"name":"requestedAmount","type":"uint256","indexed":false,"internalType":"uint256"}],"anonymous":false},{"type":"event","name":"ProposalRejected","inputs":[{"name":"id","type":"uint256","indexed":true,"internalType":"uint256"}],"anonymous":false},{"type":"event","name":"Voted","inputs":[{"name":"id","type":"uint256","indexed":true,"internalType":"uint256"},{"name":"voter","type":"address","indexed":true,"internalType":"address"},{"name":"support","type":"bool","indexed":false,"internalType":"bool"}],"anonymous":false}],"bytecode":{"object":"0x6080604052348015600e575f5ffd5b5060015f819055506122e3806100235f395ff3fe60806040526004361061009f575f3560e01c80639b5655dc116100635780639b5655dc146101a7578063a438d208146101d1578063c44d891e146101fb578063c7f758a814610223578063c9d27afe1461025f578063da35c66414610287576100a6565b8063013cf08b146100aa57806343859632146100f15780634d68282f1461012d5780635652077c14610155578063916249361461017d576100a6565b366100a657005b5f5ffd5b3480156100b5575f5ffd5b506100d060048036038101906100cb919061132a565b6102b1565b6040516100e89c9b9a999897969594939291906114a0565b60405180910390f35b3480156100fc575f5ffd5b5061011760048036038101906101129190611597565b6104d7565b60405161012491906115d5565b60405180910390f35b348015610138575f5ffd5b50610153600480360381019061014e919061132a565b610501565b005b348015610160575f5ffd5b5061017b6004803603810190610176919061132a565b610822565b005b348015610188575f5ffd5b50610191610a11565b60405161019e91906115ee565b60405180910390f35b3480156101b2575f5ffd5b506101bb610a1c565b6040516101c891906115ee565b60405180910390f35b3480156101dc575f5ffd5b506101e5610a23565b6040516101f291906115ee565b60405180910390f35b348015610206575f5ffd5b50610221600480360381019061021c9190611733565b610a2a565b005b34801561022e575f5ffd5b506102496004803603810190610244919061132a565b610c9a565b6040516102569190611991565b60405180910390f35b34801561026a575f5ffd5b50610285600480360381019061028091906119db565b610fad565b005b348015610292575f5ffd5b5061029b61125e565b6040516102a891906115ee565b60405180910390f35b6002602052805f5260405f205f91509050805f015490806001015f9054906101000a900473ffffffffffffffffffffffffffffffffffffffff16908060020180546102fb90611a46565b80601f016020809104026020016040519081016040528092919081815260200182805461032790611a46565b80156103725780601f1061034957610100808354040283529160200191610372565b820191905f5260205f20905b81548152906001019060200180831161035557829003601f168201915b50505050509080600301805461038790611a46565b80601f01602080910402602001604051908101604052809291908181526020018280546103b390611a46565b80156103fe5780601f106103d5576101008083540402835291602001916103fe565b820191905f5260205f20905b8154815290600101906020018083116103e157829003601f168201915b50505050509080600401805461041390611a46565b80601f016020809104026020016040519081016040528092919081815260200182805461043f90611a46565b801561048a5780601f106104615761010080835404028352916020019161048a565b820191905f5260205f20905b81548152906001019060200180831161046d57829003601f168201915b50505050509080600501549080600601549080600701549080600801549080600901549080600a015f9054906101000a900460ff169080600a0160019054906101000a900460ff1690508c565b6003602052815f5260405f20602052805f5260405f205f915091509054906101000a900460ff1681565b805f8111801561051357506001548111155b610552576040517f08c379a000000000000000000000000000000000000000000000000000000000815260040161054990611ac0565b60405180910390fd5b60015f5414610596576040517f08c379a000000000000000000000000000000000000000000000000000000000815260040161058d90611b28565b60405180910390fd5b60025f819055505f60025f8481526020019081526020015f209050600160038111156105c5576105c4611413565b5b81600a015f9054906101000a900460ff1660038111156105e8576105e7611413565b5b14610628576040517f08c379a000000000000000000000000000000000000000000000000000000000815260040161061f90611b90565b60405180910390fd5b80600a0160019054906101000a900460ff161561067a576040517f08c379a000000000000000000000000000000000000000000000000000000000815260040161067190611bf8565b60405180910390fd5b80600501544710156106c1576040517f08c379a00000000000000000000000000000000000000000000000000000000081526004016106b890611c60565b60405180910390fd5b600181600a0160016101000a81548160ff021916908315150217905550600381600a015f6101000a81548160ff0219169083600381111561070557610704611413565b5b02179055505f816001015f9054906101000a900473ffffffffffffffffffffffffffffffffffffffff1673ffffffffffffffffffffffffffffffffffffffff16826005015460405161075690611cab565b5f6040518083038185875af1925050503d805f8114610790576040519150601f19603f3d011682016040523d82523d5f602084013e610795565b606091505b50509050806107d9576040517f08c379a00000000000000000000000000000000000000000000000000000000081526004016107d090611d09565b60405180910390fd5b837f80230996023d69b50793fa73f1919127c9d8e741d3989743c479169f22e7a288836005015460405161080d91906115ee565b60405180910390a2505060015f819055505050565b805f8111801561083457506001548111155b610873576040517f08c379a000000000000000000000000000000000000000000000000000000000815260040161086a90611ac0565b60405180910390fd5b5f60025f8481526020019081526020015f20905080600901544210156108ce576040517f08c379a00000000000000000000000000000000000000000000000000000000081526004016108c590611d71565b60405180910390fd5b5f60038111156108e1576108e0611413565b5b81600a015f9054906101000a900460ff16600381111561090457610903611413565b5b14610944576040517f08c379a000000000000000000000000000000000000000000000000000000000815260040161093b90611dd9565b60405180910390fd5b8060080154816007015411156109b257600181600a015f6101000a81548160ff0219169083600381111561097b5761097a611413565b5b0217905550827f28ec9e38ba73636ceb2f6c1574136f83bd46284a3c74734b711bf45e12f8d92960405160405180910390a2610a0c565b600281600a015f6101000a81548160ff021916908360038111156109d9576109d8611413565b5b0217905550827fd92fba445edb3153b571e6df782d7a66fd0ce668519273670820ee3a86da0ef460405160405180910390a25b505050565b662386f26fc1000081565b5f47905090565b6203f48081565b662386f26fc10000821015610a74576040517f08c379a0000000000000000000000000000000000000000000000000000000008152600401610a6b90611e41565b60405180910390fd5b60015f815480929190610a8690611e8c565b919050555060405180610180016040528060015481526020013373ffffffffffffffffffffffffffffffffffffffff1681526020018681526020018581526020018481526020018381526020018281526020015f81526020015f81526020016203f48042610af49190611ed3565b81526020015f6003811115610b0c57610b0b611413565b5b81526020015f151581525060025f60015481526020019081526020015f205f820151815f01556020820151816001015f6101000a81548173ffffffffffffffffffffffffffffffffffffffff021916908373ffffffffffffffffffffffffffffffffffffffff1602179055506040820151816002019081610b8d91906120a6565b506060820151816003019081610ba391906120a6565b506080820151816004019081610bb991906120a6565b5060a0820151816005015560c0820151816006015560e082015181600701556101008201518160080155610120820151816009015561014082015181600a015f6101000a81548160ff02191690836003811115610c1957610c18611413565b5b021790555061016082015181600a0160016101000a81548160ff0219169083151502179055509050503373ffffffffffffffffffffffffffffffffffffffff166001547f3417b456fad6209c73445d5efd446d686e75e4560f0f50c13b5a5cde976447b484604051610c8b91906115ee565b60405180910390a35050505050565b610ca2611264565b815f81118015610cb457506001548111155b610cf3576040517f08c379a0000000000000000000000000000000000000000000000000000000008152600401610cea90611ac0565b60405180910390fd5b60025f8481526020019081526020015f20604051806101800160405290815f8201548152602001600182015f9054906101000a900473ffffffffffffffffffffffffffffffffffffffff1673ffffffffffffffffffffffffffffffffffffffff1673ffffffffffffffffffffffffffffffffffffffff168152602001600282018054610d7e90611a46565b80601f0160208091040260200160405190810160405280929190818152602001828054610daa90611a46565b8015610df55780601f10610dcc57610100808354040283529160200191610df5565b820191905f5260205f20905b815481529060010190602001808311610dd857829003601f168201915b50505050508152602001600382018054610e0e90611a46565b80601f0160208091040260200160405190810160405280929190818152602001828054610e3a90611a46565b8015610e855780601f10610e5c57610100808354040283529160200191610e85565b820191905f5260205f20905b815481529060010190602001808311610e6857829003601f168201915b50505050508152602001600482018054610e9e90611a46565b80601f0160208091040260200160405190810160405280929190818152602001828054610eca90611a46565b8015610f155780601f10610eec57610100808354040283529160200191610f15565b820191905f5260205f20905b815481529060010190602001808311610ef857829003601f168201915b505050505081526020016005820154815260200160068201548152602001600782015481526020016008820154815260200160098201548152602001600a82015f9054906101000a900460ff166003811115610f7457610f73611413565b5b6003811115610f8657610f85611413565b5b8152602001600a820160019054906101000a900460ff161515151581525050915050919050565b815f81118015610fbf57506001548111155b610ffe576040517f08c379a0000000000000000000000000000000000000000000000000000000008152600401610ff590611ac0565b60405180910390fd5b5f60025f8581526020019081526020015f20905080600901544210611058576040517f08c379a000000000000000000000000000000000000000000000000000000000815260040161104f906121bf565b60405180910390fd5b60035f8581526020019081526020015f205f3373ffffffffffffffffffffffffffffffffffffffff1673ffffffffffffffffffffffffffffffffffffffff1681526020019081526020015f205f9054906101000a900460ff16156110f1576040517f08c379a00000000000000000000000000000000000000000000000000000000081526004016110e890612227565b60405180910390fd5b5f600381111561110457611103611413565b5b81600a015f9054906101000a900460ff16600381111561112757611126611413565b5b14611167576040517f08c379a000000000000000000000000000000000000000000000000000000000815260040161115e9061228f565b60405180910390fd5b600160035f8681526020019081526020015f205f3373ffffffffffffffffffffffffffffffffffffffff1673ffffffffffffffffffffffffffffffffffffffff1681526020019081526020015f205f6101000a81548160ff02191690831515021790555082156111ef57806007015f8154809291906111e590611e8c565b9190505550611209565b806008015f81548092919061120390611e8c565b91905055505b3373ffffffffffffffffffffffffffffffffffffffff16847ff2913dbe661ee2acc4a046d8fbcdc792373bda34c41c6086484b5345e5785e5f8560405161125091906115d5565b60405180910390a350505050565b60015481565b6040518061018001604052805f81526020015f73ffffffffffffffffffffffffffffffffffffffff1681526020016060815260200160608152602001606081526020015f81526020015f81526020015f81526020015f81526020015f81526020015f60038111156112d8576112d7611413565b5b81526020015f151581525090565b5f604051905090565b5f5ffd5b5f5ffd5b5f819050919050565b611309816112f7565b8114611313575f5ffd5b50565b5f8135905061132481611300565b92915050565b5f6020828403121561133f5761133e6112ef565b5b5f61134c84828501611316565b91505092915050565b61135e816112f7565b82525050565b5f73ffffffffffffffffffffffffffffffffffffffff82169050919050565b5f61138d82611364565b9050919050565b61139d81611383565b82525050565b5f81519050919050565b5f82825260208201905092915050565b8281835e5f83830152505050565b5f601f19601f8301169050919050565b5f6113e5826113a3565b6113ef81856113ad565b93506113ff8185602086016113bd565b611408816113cb565b840191505092915050565b7f4e487b71000000000000000000000000000000000000000000000000000000005f52602160045260245ffd5b6004811061145157611450611413565b5b50565b5f81905061146182611440565b919050565b5f61147082611454565b9050919050565b61148081611466565b82525050565b5f8115159050919050565b61149a81611486565b82525050565b5f610180820190506114b45f83018f611355565b6114c1602083018e611394565b81810360408301526114d3818d6113db565b905081810360608301526114e7818c6113db565b905081810360808301526114fb818b6113db565b905061150a60a083018a611355565b61151760c0830189611355565b61152460e0830188611355565b611532610100830187611355565b611540610120830186611355565b61154e610140830185611477565b61155c610160830184611491565b9d9c50505050505050505050505050565b61157681611383565b8114611580575f5ffd5b50565b5f813590506115918161156d565b92915050565b5f5f604083850312156115ad576115ac6112ef565b5b5f6115ba85828601611316565b92505060206115cb85828601611583565b9150509250929050565b5f6020820190506115e85f830184611491565b92915050565b5f6020820190506116015f830184611355565b92915050565b5f5ffd5b5f5ffd5b7f4e487b71000000000000000000000000000000000000000000000000000000005f52604160045260245ffd5b611645826113cb565b810181811067ffffffffffffffff821117156116645761166361160f565b5b80604052505050565b5f6116766112e6565b9050611682828261163c565b919050565b5f67ffffffffffffffff8211156116a1576116a061160f565b5b6116aa826113cb565b9050602081019050919050565b828183375f83830152505050565b5f6116d76116d284611687565b61166d565b9050828152602081018484840111156116f3576116f261160b565b5b6116fe8482856116b7565b509392505050565b5f82601f83011261171a57611719611607565b5b813561172a8482602086016116c5565b91505092915050565b5f5f5f5f5f60a0868803121561174c5761174b6112ef565b5b5f86013567ffffffffffffffff811115611769576117686112f3565b5b61177588828901611706565b955050602086013567ffffffffffffffff811115611796576117956112f3565b5b6117a288828901611706565b945050604086013567ffffffffffffffff8111156117c3576117c26112f3565b5b6117cf88828901611706565b93505060606117e088828901611316565b92505060806117f188828901611316565b9150509295509295909350565b611807816112f7565b82525050565b61181681611383565b82525050565b5f82825260208201905092915050565b5f611836826113a3565b611840818561181c565b93506118508185602086016113bd565b611859816113cb565b840191505092915050565b61186d81611466565b82525050565b61187c81611486565b82525050565b5f61018083015f8301516118985f8601826117fe565b5060208301516118ab602086018261180d565b50604083015184820360408601526118c3828261182c565b915050606083015184820360608601526118dd828261182c565b915050608083015184820360808601526118f7828261182c565b91505060a083015161190c60a08601826117fe565b5060c083015161191f60c08601826117fe565b5060e083015161193260e08601826117fe565b506101008301516119476101008601826117fe565b5061012083015161195c6101208601826117fe565b50610140830151611971610140860182611864565b50610160830151611986610160860182611873565b508091505092915050565b5f6020820190508181035f8301526119a98184611882565b905092915050565b6119ba81611486565b81146119c4575f5ffd5b50565b5f813590506119d5816119b1565b92915050565b5f5f604083850312156119f1576119f06112ef565b5b5f6119fe85828601611316565b9250506020611a0f858286016119c7565b9150509250929050565b7f4e487b71000000000000000000000000000000000000000000000000000000005f52602260045260245ffd5b5f6002820490506001821680611a5d57607f821691505b602082108103611a7057611a6f611a19565b5b50919050565b7f496e76616c69642070726f706f73616c000000000000000000000000000000005f82015250565b5f611aaa6010836113ad565b9150611ab582611a76565b602082019050919050565b5f6020820190508181035f830152611ad781611a9e565b9050919050565b7f5265656e7472616e637947756172643a207265656e7472616e742063616c6c005f82015250565b5f611b12601f836113ad565b9150611b1d82611ade565b602082019050919050565b5f6020820190508181035f830152611b3f81611b06565b9050919050565b7f4e6f7420617070726f76656400000000000000000000000000000000000000005f82015250565b5f611b7a600c836113ad565b9150611b8582611b46565b602082019050919050565b5f6020820190508181035f830152611ba781611b6e565b9050919050565b7f416c72656164792072656c6561736564000000000000000000000000000000005f82015250565b5f611be26010836113ad565b9150611bed82611bae565b602082019050919050565b5f6020820190508181035f830152611c0f81611bd6565b9050919050565b7f496e73756666696369656e7420747265617375727900000000000000000000005f82015250565b5f611c4a6015836113ad565b9150611c5582611c16565b602082019050919050565b5f6020820190508181035f830152611c7781611c3e565b9050919050565b5f81905092915050565b50565b5f611c965f83611c7e565b9150611ca182611c88565b5f82019050919050565b5f611cb582611c8b565b9150819050919050565b7f5472616e73666572206661696c656400000000000000000000000000000000005f82015250565b5f611cf3600f836113ad565b9150611cfe82611cbf565b602082019050919050565b5f6020820190508181035f830152611d2081611ce7565b9050919050565b7f566f74696e67206f6e676f696e670000000000000000000000000000000000005f82015250565b5f611d5b600e836113ad565b9150611d6682611d27565b602082019050919050565b5f6020820190508181035f830152611d8881611d4f565b9050919050565b7f416c72656164792066696e616c697a65640000000000000000000000000000005f82015250565b5f611dc36011836113ad565b9150611dce82611d8f565b602082019050919050565b5f6020820190508181035f830152611df081611db7565b9050919050565b7f42656c6f77206d696e696d756d207265717565737400000000000000000000005f82015250565b5f611e2b6015836113ad565b9150611e3682611df7565b602082019050919050565b5f6020820190508181035f830152611e5881611e1f565b9050919050565b7f4e487b71000000000000000000000000000000000000000000000000000000005f52601160045260245ffd5b5f611e96826112f7565b91507fffffffffffffffffffffffffffffffffffffffffffffffffffffffffffffffff8203611ec857611ec7611e5f565b5b600182019050919050565b5f611edd826112f7565b9150611ee8836112f7565b9250828201905080821115611f0057611eff611e5f565b5b92915050565b5f819050815f5260205f209050919050565b5f6020601f8301049050919050565b5f82821b905092915050565b5f60088302611f627fffffffffffffffffffffffffffffffffffffffffffffffffffffffffffffffff82611f27565b611f6c8683611f27565b95508019841693508086168417925050509392505050565b5f819050919050565b5f611fa7611fa2611f9d846112f7565b611f84565b6112f7565b9050919050565b5f819050919050565b611fc083611f8d565b611fd4611fcc82611fae565b848454611f33565b825550505050565b5f5f905090565b611feb611fdc565b611ff6818484611fb7565b505050565b5b818110156120195761200e5f82611fe3565b600181019050611ffc565b5050565b601f82111561205e5761202f81611f06565b61203884611f18565b81016020851015612047578190505b61205b61205385611f18565b830182611ffb565b50505b505050565b5f82821c905092915050565b5f61207e5f1984600802612063565b1980831691505092915050565b5f612096838361206f565b9150826002028217905092915050565b6120af826113a3565b67ffffffffffffffff8111156120c8576120c761160f565b5b6120d28254611a46565b6120dd82828561201d565b5f60209050601f83116001811461210e575f84156120fc578287015190505b612106858261208b565b86555061216d565b601f19841661211c86611f06565b5f5b828110156121435784890151825560018201915060208501945060208101905061211e565b86831015612160578489015161215c601f89168261206f565b8355505b6001600288020188555050505b505050505050565b7f566f74696e6720656e64656400000000000000000000000000000000000000005f82015250565b5f6121a9600c836113ad565b91506121b482612175565b602082019050919050565b5f6020820190508181035f8301526121d68161219d565b9050919050565b7f416c726561647920766f746564000000000000000000000000000000000000005f82015250565b5f612211600d836113ad565b915061221c826121dd565b602082019050919050565b5f6020820190508181035f83015261223e81612205565b9050919050565b7f4e6f7420616374697665000000000000000000000000000000000000000000005f82015250565b5f612279600a836113ad565b915061228482612245565b602082019050919050565b5f6020820190508181035f8301526122a68161226d565b905091905056fea2646970667358221220871b474bbf72ebd6e42444c6c7fd85ae2d3289ebea4fb50332aab90110614a8f64736f6c634300081e0033","linkReferences":{}},"methodIdentifiers":{"MIN_REQUEST()":"91624936","VOTING_DURATION()":"a438d208","createFundingProposal(string,string,string,uint256,uint256)":"c44d891e","finalizeProposal(uint256)":"5652077c","getProposal(uint256)":"c7f758a8","getTreasuryBalance()":"9b5655dc","hasVoted(uint256,address)":"43859632","proposalCount()":"da35c664","proposals(uint256)":"013cf08b","releaseFunds(uint256)":"4d68282f","vote(uint256,bool)":"c9d27afe"},"id":16}